:020000040800F2
:10100000003C0020E13F000829400008A94D0008ED
:10101000AD4D0008B14D0008B54D000800000000BE
:10102000000000000000000000000000B94D0008B2
:10103000BD4D000800000000C14D0008C54D00086E
:1010400029400008294000082940000829400008DC
:10105000294000082940000829400008454F0008A1
:1010600000000000C94D000829400008F14D0008AB
:10107000A14E000829400008294000080000000097
:10108000214F00082940000800000000E94E000838
:10109000094F0008F94E00082940000829400008BF
:1010A0002940000829400008294000081D4F000879
:1010B00029400008000000000000000000000000BF
:0C10C00029400008000000002940000842
:1010CC0053B94AB9002908BF00281CBF4FF0FF31A3
:1010DC004FF0FF3000F00CB8ADF1080C6DE904CE08
:1010EC0004F0FAFDDDF804E0DDE9022304B07047FA
:1010FC00704700BF10B5054C237833B9044B13B1BE
:10110C000448AFF300800123237010BD2408002095
:10111C00000000000C60000808B5034B1BB103492C
:10112C000348AFF3008008BD000000002808002031
:10113C000C600008AF4BB04AB3F87CC018882DE99E
:10114C00F04FACEB00011588AC4C89B24A098D42CA
:10115C0087B02180628080F0E580A94D2D888D427A
:10116C0040F2E0805968DFF89C820F1AD3E9020143
:10117C00BFB2081A80B2BA422CBF002701278242A4
:10118C002CBF002101210591A160D3E90451A1EBF1
:10119C00050ED3E90651A1EB050AD3E908511FFA54
:1011AC008EFE1FFA8AFA7245A1EB050189B22CBF9B
:1011BC004FF0000E4FF0010E52452CBF4FF0000ABD
:1011CC004FF0010A8A422CBF002101210491616178
:1011DC00D3E90A51491B89B28A42D3E90C51A1EBDC
:1011EC00050189B22CBF002001208A422CBF0025AA
:1011FC0001250295E561D3E90E51491B89B28A425A
:10120C00D3E91051A1EB050189B22CBF00260126B0
:10121C008A422CBF4FF0000B4FF0010B0390A061E2
:10122C00019626626760C4F80CE0C4F810A0C4F8FC
:10123C0024B0D3E912514D1BD3E914618E1B00214C
:10124C00A8F80010D3E91A01ADB2B6B2AA42A1EBCC
:10125C00000189B22CBF00250125B2422CBF00260B
:10126C0001268A422CBF002101214FEA8108A1638B
:10127C00D3E91691A1EB0909D3E918011FFA89F9F1
:10128C00091A89B24A452CBF4FF000094FF00109E9
:10129C008A422CBF0021012148EAC1086163996F81
:1012AC000398C4F83090ACEB010189B28A422CBF90
:1012BC000021012148EA01082164D3E91C31CB1A31
:1012CC009BB29A422CBF00230123E36348EA4308F4
:1012DC00059B4D49A56243406B409A00049B0198C5
:1012EC00E6627B408BEA030342EAC30380EA0A020C
:1012FC0089EA0209029A43EA090382EA0E0986EA9C
:10130C00090943EA49090B787BB1404B1B7883B937
:10131C00C84513D0B4F8543000220133A4F854302B
:10132C0084F8482007B0BDE8F08F384B1A78002AB3
:10133C0076D0C8F10F085FFA88F8E9E7B4F84630C0
:10134C0030480133A4F84630236B0022012B028075
:10135C0004BF2F4A1370059B049A5B0243EA872350
:10136C00334343EA0E2343EACA1343EA8213039A34
:10137C0043EA4213029A43EA0213019A43EAC20374
:10138C0094F8482043EA8B0343EA4505FAB92F2D1C
:10139C0067DD94F84D30002B40F09A801D4E357867
:1013AC00002DBFD01C4B1B78002BBBD10B78002B16
:1013BC00B8D094F85030AB4200F09180042D84F8F2
:1013CC00505040F29780012384F84E30AAE7012A4E
:1013DC0078D0022A70D0032AA4D1252DA2D10F498E
:1013EC00B4F84A2094F84C008854002384F8483010
:1013FC0098E700BF200700200C070020C80300203E
:10140C00C0030020A206002070060020B1060020B8
:10141C009C060020C806002058060020F804002076
:10142C00019303F0ABFC019B704918B394F8442072
:10143C000132D2B2642A84F844201BD901221A70DA
:10144C00D4E90173059363690493A3690393E36976
:10145C000293236AE66A0193D4E903EAD4E909B555
:10146C0067E76B1E2E2B16D8614B624E1A80EDB2BD
:10147C00357097E7D4E90172059262690492A2690A
:10148C000392E2690292226AE66A0192D4E903EAC3
:10149C00D4E909B53AE7002D80D194F84F3054497E
:1014AC00544A012B4FF0000308BF84F84D500B80B9
:1014BC00137084F84E3035E7032384F84C5084F8CD
:1014CC0048302FE70223A4F84A5084F8483029E723
:1014DC004749484B0D801A7084F84E2022E7042DA2
:1014EC0008D994F84E300133DBB2052B84F84E301A
:1014FC007FF618AF0023013D84F84E30232D16D80B
:10150C00DFE805F0126F6B67635F58514D49154169
:10151C00332B1515151515241F1515151515151522
:10152C00151515151515151B334B01221A70334A59
:10153C003178117000233370F4E6012384F84830BD
:10154C00F5E72F4A2F4B527C1A70F0E72C4B2D4AA3
:10155C005B7CC3F101031370E9E7002240F6FF63E3
:10156C0084F85120A4F85230E1E794F84F3001216F
:10157C004FF460628B4284F85110A4F85220D6D1FB
:10158C0084F84D30D3E700F05FFB1D4B1A4A5B7CAF
:10159C0001331370CBE71A4B01229A74C7E7184B2F
:1015AC0000229A74C3E71649164B01200022487496
:1015BC001A70BCE71249134B0020012248741A70B0
:1015CC00B5E7114B01221A70B1E70B4B05221A70CB
:1015DC00ADE7094B04221A70A9E7074B03221A70D6
:1015EC00A5E7054B02221A70A1E700BF7006002088
:1015FC005A060020C806002076060020C9060020E6
:10160C00F804002054000020B406002030B53B4DF7
:10161C00B5F85230002B40D000221846A5F85220C5
:10162C001A0A82EA13125340DB4303F00F0343EA16
:10163C000013334AEB6503F00F001913145C515C73
:10164C00304844EAC134C3F30321C3F30313515CA0
:10165C00D35C2D4A92F800E044EA812444EA431416
:10166C0005EB8E03802200EB8E009A6611462C66E9
:10167C00043013224FF0010C0CFA02F32340D34038
:10168C0083EAD111013AC901531C40F8041FF3D16C
:10169C0005EB8E0500236B6630BD1C4A1278B2B187
:1016AC00C20B16D18213012A1ED04213012A19D063
:1016BC000213012A1AD0C212012A1BD08212012A4B
:1016CC0016D04212012A17D0AB650346A8E74FF695
:1016DC00FF700F22083A40FA02F343EA4220AA654F
:1016EC0083B29DE70D22F5E70E22F3E70C22F1E71A
:1016FC000A22EFE70B22EDE70922EBE7C8030020F3
:10170C00246000082C040020C3030020580600208D
:10171C0030B5039C05468D4209DC13E0A34213D07F
:10172C00B1EB6C0F0DD0754510DC0446724601EB25
:10173C00020C181995424FEA6C0E4FEA6000EDDB73
:10174C00204630BD9542FBDA184630BD0EF1010142
:10175C000346E0E70346401A48BFC81A704700BF6B
:10176C0004494A6A80B292B24B6A9B1A9BB283427A
:10177C00FAD370470048014000F1FF3C58B10649CC
:10178C004A6A92B24B6A9B1A9BB2B3F57A7FF9D331
:10179C00BCF1010CF4D2704700480140002965D01F
:1017AC000139421E50FA81F1002027E0C3B240B249
:1017BC00002831DB5800C3B240B2002833DB58009C
:1017CC00C3B240B2002835DB5800C3B240B2002887
:1017DC0037DB5800C3B240B2002839DB5800C3B223
:1017EC0040B200283BDB5B00D8B25BB24000002B60
:1017FC00B8BF80F007008A42C0B236D012F8013F61
:10180C00584010F0800F4FEA4000CFD080F0070313
:10181C0058B20028DBB2CDDA5B0083F0070358B274
:10182C000028DBB2CBDA5B0083F0070358B2002848
:10183C00DBB2C9DA5B0083F0070358B20028DBB2D5
:10184C00C7DA5B0083F0070358B20028DBB2C5DAB5
:10185C005B0083F0070358B20028DBB2C3DA5800F0
:10186C0080F0070043B2C0B2C0E77047084670472B
:10187C00026803FB03F303EB430C22EA0C0201FBAB
:10188C0003F313430360704703FB03F310B40468C2
:10189C0003FB01F103FB02F203EB430324EA030411
:1018AC000C430460C16810BC21EA03031343C360FA
:1018BC00704700BF10B50C4CBDF808C0A170090AE8
:1018CC006170110AE170190A2070227161714FEA7E
:1018DC001C2209212046A371E27184F808C0FFF78D
:1018EC005DFF607210BD00BFC404002070B50B4CCE
:1018FC000B4E04F13005B64620686168A268E368B7
:10190C00F446ACE80F001034AC42E646F4D104487F
:10191C003021FFF743FF86F8300070BDF80400203B
:10192C00C4040020BFF34F8F0549064BCA6802F46C
:10193C00E0621343CB60BFF34F8F00BFFDE700BFE6
:10194C0000ED00E00400FA0570B5B64CB64D82B05F
:10195C002968C022204603F0A1FB6378022B40F2D9
:10196C000681A279511EC9B2E37D2A2B4DD8181FCE
:10197C0005284AD9032B4DD8DB0084F8C030237ED0
:10198C00A3F10800C0B2882850D803EB8303A74802
:10199C00A74E03EB83039B00A0FB03033129A5484F
:1019AC004FEA9303B0FBF3F3F362AB8045D802EB41
:1019BC008202520002F5C87189B2637E2A81A3F1BA
:1019CC003200642898BFD218A37EA98103EB83034D
:1019DC004FEAC30303F1140398BF92B20220EB81C8
:1019EC006A8102F01FF963785BBBE8894FF4FA73E4
:1019FC00009340F6B8324FF47A734FF49671FFF7B8
:101A0C0087FEA5F8500002B070BD1020032B84F89F
:101A1C00C000B1D90A3BDBB2202B98BF84F8C03090
:101A2C00237EA3F10800C0B28828AED9804841F2C9
:101A3C0087333129EB80C362B9D94FF4C8710022C6
:101A4C00BBE7A07F0B2888BF052002F0EBF894F8C9
:101A5C00213094F8202094F8221094F82300A875D3
:101A6C0003F26B335B006B8294F82830053B142B2C
:101A7C0084BF052384F8283094F8293002F27712B9
:101A8C00013B5200092B2A8294F8252088BF0A2397
:101A9C0002F1FA0288BF84F8293094F82A302A839C
:101AAC00002284F827205A1E01F25E51082AA982CE
:101ABC0069D90A2384F82A3094F82B30617AE27AB7
:101ACC00A07AA862463B462B84BFFF2384F82B30B8
:101ADC0094F82C30013B622B9CBF012384F8C1305D
:101AEC0094F82D30013B092B84BF052384F82D304D
:101AFC0094F82E3049005200092B6962EA6206D82C
:101B0C00042B0CD8DFE803F00388840B7B004A4AD3
:101B1C000023012184F8C23084F8C330117063793A
:101B2C00092B4CD80A2284F8C42085F8483085F853
:101B3C00493085F84A30E889404AE47EB0F5967F12
:101B4C003CBF002385F84B30384BA2FB0012A3FBA3
:101B5C00001352092021DB08B1FBF4F1B2FBF1F2C6
:101B6C00B3FBF1F3A5F84C20A5F84E303EE7344A10
:101B7C00C4F8052000214FF06413C4F80930C4F8F0
:101B8C000D100122F0E6C3EB4312C3EB82035B00A2
:101B9C00063BDBB2C82B2ED8AB769AB269891144BE
:101BAC006981298911442981A98B1144A983A989A7
:101BBC000A441F49AA814A6C13434B647CE70122F7
:101BCC0084F8C42095F8481002F1CC32A2FB032310
:101BDC00DA08B1EBD30F88BF85F8482095F8493067
:101BEC009A4238BF85F8492095F84A309A4238BF56
:101BFC0085F84A209FE7C8221346AA76CEE71149FA
:101C0C000D4A01230B700021117084F8C23086E755
:101C1C00012384F8C33082E7074A012384F8C230D9
:101C2C0013707CE7F804002000000020ABAAAAAADD
:101C3C00002C0140F0821E00150400201F85EB5182
:101C4C00A001000A17040020024B03481A68C021A7
:101C5C0003F0C8B900000020F804002038B5284C67
:101C6C0094F85430012B3BD094F85530254D5A1E26
:101C7C0012F0FF0222D084F8552003F0010384F8FF
:101C8C00523072B695F83B312BB362B603F082F941
:101C9C00D5F83C21A16D40F6C4139A4284BF0123B0
:101CAC0084F8563094F8553005EB4303002285F840
:101CBC00382185F84021A3F8421138BD01230622B2
:101CCC0084F8552085F83A3184F8523072B695F87C
:101CDC003B31002BD9D194F8550003F0BDFCD4E76F
:101CEC0094F85520074D0132D2B2062A99BF84F8D8
:101CFC00552002F0010384F8553085F83A31BEE7DF
:101D0C0000000020F80400201C4AD36823F00103D3
:101D1C0010B51B4CD360FFF7A1FF1A49B4F8520160
:101D2C00B4F850218B6D024403EB520394F82F202E
:101D3C0058088865C2B994F8C02000FB02F2C2F3BF
:101D4C008F1291F85610A4F85621C2EB9303A4F805
:101D5C00583181B1D4F85C3142F20F7293429CBF7E
:101D6C000133C4F85C3110BD94F8542100FB02F22D
:101D7C00C2F38F12E5E703F005F9EBE700440140ED
:101D8C00F80400200000002038B5174D95F85C30A1
:101D9C0073B1002403E095F85C30A34208DD03F036
:101DAC00DDF895F85230834204F10104F3D138BDCB
:101DBC0072B603F0DBF80D4A0D48B2F85811446ABC
:101DCC00B2F852510B4BA2F85051A2F852410131CA
:101DDC00002242625A62D9621A61DA6842F0010248
:101DEC00DA6062B638BD00BF00000020F8040020A5
:101DFC00001000400044014070B5C84CA37C82B078
:101E0C007BB394F8C230002B00F09080C44D94F852
:101E1C002630002B40F06481B4F86221B2F5836F58
:101E2C0080F09782A2F130039BB2B3F57A7F10D287
:101E3C00617C95F85460C1F10100864200F02D835D
:101E4C0095F85D105B009BB2C1F12F010B44A4F817
:101E5C0064312F2A0AD80023A4F8643184F86B313A
:101E6C0004E0B4F86231AE4DA4F8643194F86C21FE
:101E7C0095F85E309A4203D9A37D002B40F0E380A5
:101E8C00E67CAEB3B4F864011D2800F2C7800023D1
:101E9C00A4F86E3194F8283003EB8303B0EB830F76
:101EAC004FEA830180F2C68094F86A31002B40F02F
:101EBC00AE8094F87831002B00F0A980E27CB4F865
:101ECC006E0150232E2113FB02138342C0F22C818E
:101EDC0094F87E31002B00F0C981013B042B00F2F9
:101EEC00C281DFE813F0BE019D039A039703BE0184
:101EFC0094F87031002B00F08C8094F87131002B29
:101F0C0040F06681D4F874218649D31781FB021204
:101F1C00C3EB22339BB2B3F5006FA4F86E31C0F063
:101F2C00DB8140F2FF73A4F86E31BDE794F82620F4
:101F3C007B4DB4F86201002A00F09080AE7D7600F3
:101F4C0006F57A7188421CDD667C95F85420B24205
:101F5C0000F03D8394F83B31002B40F0BB80002314
:101F6C0084F8663140F2FF7300934FF4FA622F232A
:101F7C00FFF7CEFBAE7D0346B4F86201A4F86431E2
:101F8C007600C6F57A72824221DD637C95F8546046
:101F9C00C3F101018E4200F0DD8294F83B31002B3D
:101FAC0040F098802F230021009340F2FF7384F8B7
:101FBC006611FFF7ADFBAE7D03467600B4F8620107
:101FCC00A4F86431C6F57A739842C0F2838006F5A2
:101FDC007A76B0427EDC94F83B210023A4F864317D
:101FEC00002A77D0012284F83B3184F8662171E015
:101FFC00E17C2E22502313FB0123B4F86E21934273
:10200C00BFF666AF94F83B61002E00F0C28102B0BF
:10201C0070BDB4F86431A4F86E3145E71E283FF466
:10202C0039AF94F8282002EB8202920090421146BC
:10203C00C0F2ED8040F2FF720092A023FFF768FB24
:10204C00A4F86E0130E703F0C9FA02F08FFF00220A
:10205C006623A4F86E2184F86C3125E7AA7D520022
:10206C0002F57A71884240F38981637C95F854209B
:10207C009A4200F04F8240F2FF7300934FF4FA62E1
:10208C002F23FFF745FBAB7D02465B00B4F86201E2
:10209C00A4F86421C3F57A72824240F3F881637C20
:1020AC0095F85460C3F101018E4200F074822F2325
:1020BC000093002140F2FF73FFF72AFBAB7D024631
:1020CC005B00B4F86201A4F86421C3F57A72904203
:1020DC0080F2DD8194F8C230002B3FF4C7AE96E657
:1020EC00B4F86231B3F5836FC0F09D80617C95F8D4
:1020FC0054208A4200F07D8294F83B21002A7FF420
:10210C00B5AE95F85D206FF40060C2EB430300217F
:10211C00034484F86611A4F86431A7E6F80400209F
:10212C0000000020AD8BDB6894F86031002B00F0D0
:10213C003F81002A00F030812B894FF4FA62009223
:10214C00283340F2FF728921FFF7E2FAA4F87C01F0
:10215C0094F82630002B7FF44BAFE07CB4F86E1172
:10216C0084F83B3150222E2312FB003399427FF727
:10217C00AFAE2E2907D9627F1E231341D4F85C2100
:10218C00934200F26181B4F87C31B5F892209A4206
:10219C003CBFA4F87C21134694F8C12032B1B5F9A8
:1021AC0094209342C4BF93B2A4F87C31D4F8882114
:1021BC00002A7FF72CAF2F297FF629AFC548D117FE
:1021CC0080FB0202C1EB22321344A4F87C311EE7DF
:1021DC00D5E91832B4F8640100922F2140F2FF7255
:1021EC00FFF796FAB4F86421BB4B93FBF0F3E07E57
:1021FC002E2A4FEA500093FBF0F3A4F872313FF60D
:10220C0081AEA4F86E61AE66C4F874614CE6A0238E
:10221C0000931E212F23FFF77BFA0346A4F86E319F
:10222C00B4F8640136E6303B9BB2B3F57A7F80F0AC
:10223C008280627C95F85400C2F10101884200F062
:10224C009A8194F83B21002A7FF410AE95F85D201A
:10225C00C2EB430300212F3384F86611A4F86431D8
:10226C0004E601F01DFE002384F87E31237D002B53
:10227C0039D194F86021A4F87C31002A00F0F38065
:10228C0094F82630002B3FF4BDAE94F83B31002B74
:10229C007FD094F8C230002B00F0F581B4F86211B5
:1022AC00A1F130039AB2B2F57A7F80F00D8295F8E5
:1022BC005D30C3EB42032F339BB2A4F8803140F264
:1022CC00CE72934240F2DC8103F05EFB94F83B61EA
:1022DC00002E7FF49CAE5CE02F2B3FF6E5AD302357
:1022EC00A4F86E31E0E594F86031002B73D1267FB1
:1022FC00C4F85C31012285F8562084F83931002E5F
:10230C0067D0E17C002967D1012E65D194F8293082
:10231C0003EB830303EB8303DB009BB240F2CE722F
:10232C009342A4F8803140F2E18103F02DFBE17C73
:10233C0094F83B6152E094F83B210023A4F86431FB
:10234C00002A3FF493AD012284F83B3184F86621D6
:10235C008CE5637C95F85410994200F0BF8095F899
:10236C005D00A2F58361490089B2C0F12F00A2F192
:10237C00300301449BB2A4F8641156E5C2F57A729D
:10238C009042FFF68CAE0023A4F8643184F86B31D4
:10239C00A0E6B4F86E11ECE64FF4FA6200922B89C9
:1023AC0040F2FF722F21FFF7B3F9A4F87C01CFE6BE
:1023BC0003F014F995F85630002B00F058816B8916
:1023CC00E27CB4F86E01A4F87A31012184F8601132
:1023DC00AFE603F003F9E17C94F83B6195F85530D6
:1023EC00013BC3EB0312B5F8903003EB82031AB236
:1023FC00B2F5B47F9BB2A6BFA3F5B4739BB2A4F89D
:10240C00822103F1770212B2A8BFA4F88231B2F58F
:10241C00B47FA8BFA3F1F102A4F8842103F1EF0269
:10242C0012B2B2F5B47FA6BF793BA4F88631A4F8FA
:10243C0086210023012908BF84F86A11A4F87C3195
:10244C00002E7FF4E4ADA4E7B4F87C316A899342A2
:10245C003CBFA4F87C211346AA899A423CBFA4F83D
:10246C007C21134691E6237FC4F85C21012185F879
:10247C005610002B40F0018194F83B31002B00F0FA
:10248C00138194F82630002B7FF403AFBFE503F5DE
:10249C007A738342FFF61EAE75E7B5F85020AB6D2C
:1024AC009A4280F0C080B4F86831C72B00F2BB8030
:1024BC000123002685F85630C4F85C6185F8541069
:1024CC0002F054FDB4F8622184F86B61A2F1300380
:1024DC00B6E400BFAD8BDB6800879303B5F85010F2
:1024EC00AA6D914280F0B180B4F86821C72A00F23D
:1024FC00AC800122C3F10103002685F8562085F833
:10250C005430C4F85C6102F031FDB4F8622184F8F7
:10251C006B6124E7B5F85000AA6D904280F08B8077
:10252C00B4F86821C72A00F28680C3F101030026A3
:10253C00012285F85430C4F85C6185F8562002F00D
:10254C0015FDA97DB4F8620184F86B61490001F5B1
:10255C007A7190E594F8666100214FF0010CA4F8B3
:10256C00641184F83BC1002E3FF4B4AD85F85430AF
:10257C0084F83B1116E594F8660100210126A4F8B5
:10258C00641184F83B6100283FF470AC85F854204A
:10259C0084F83B115AE6B5F85000A96D88425DD21B
:1025AC00B4F86811C72959D80122002685F856209D
:1025BC00C4F85C6185F8543002F0D8FCAA7DB4F8FC
:1025CC00620184F86B615200C2F57A726FE594F87F
:1025DC006661A4F864314FF0010C84F83BC1002E05
:1025EC003FF478ADACEB020284F83B3185F8542013
:1025FC00B5E494F8660100210126A4F8641184F86E
:10260C003B6100283FF432ACB21A85F8542084F8B0
:10261C003B1176E501F0D6FB25E601F0A1FC22E6A4
:10262C0001F06EFC1FE694F86A31002B7FF440AF8A
:10263C00A4F862310FE494F86A21002A7FF475AF94
:10264C004FF47A70A4F8620115E594F86A21002A17
:10265C007FF44FAFA4F86221FFF7FDBB94F86A1129
:10266C000029A1D14FF47A70A4F862011FE594F807
:10267C006031E3B102F086FCA1E603F085F9FFE5D9
:10268C0002F074FFBEE4B4F862114FF47A70FFF7F5
:10269C0061F894F8C22000F57A739BB2A4F88031EB
:1026AC00002A3FF40CAEF9E502F098FFE8E5FFF7DD
:1026BC00D5FA114B42F2107141F28832A9655A6277
:1026CC00012384F86031D5E7B1F5836F38BFB4F8D6
:1026DC008031FFF4F4AD95F85D306FF40062C3EB1C
:1026EC00410313449BB2A4F88031E8E502F03EFFAD
:1026FC00E17C84F83B6171E60010004010B50E4C93
:10270C0094F88C31012B0DD0022B03D0BDE8104076
:10271C00FFF772BBB4F89001FEF778FF002384F842
:10272C008C3110BDFEF706FD002384F88C31BDE81A
:10273C001040FFF761BB00BFF8040020F8B54F4E06
:10274C004F4F96F85410002977D1B7F882310133E6
:10275C001AB2B7F884310133B2F5B47F1BB2B2BFF1
:10276C00A7F88221A7F882110A46B3F5B47FA8BF57
:10277C000023A7F88431B7F8863101331BB2B3F5C7
:10278C00B47F77DAA7F8863106EB4202B6F8681305
:10279C00B2F99830B0883B4D3B4C0B4400FB03F333
:1027AC0085FB0312D81797F82D30C0EBE21003FB12
:1027BC0000F0C31784FB0020C3EBA00080B202F032
:1027CC0037FEB7F98431B6F8680306EB4303B3F967
:1027DC00982097F82D300244B08800FB02F285FB5C
:1027EC000201D017C0EBE11003FB00F084FB0023C7
:1027FC00C017C0EBA30080B202F020FEB7F98631FF
:10280C00B6F8680397F82D2006EB4303B3F998301C
:10281C000344B08800FB03F385FB0315D817C0EB0A
:10282C00E51002FB00F084FB0034C017C0EBA400E1
:10283C0080B2BDE8F84002F007BEB7F88221B7F8C5
:10284C008431013A12B2013B1BB2002AB8BF40F2EC
:10285C006712002BB8BF40F26713A7F88431B7F8A2
:10286C008631A7F88221013B1BB2002BB8BF40F286
:10287C00671387E70023A7F8863185E7000000205F
:10288C00F8040020D34D62106766666638B5244D97
:10289C002449AB6D4A6A244C03EB430313FA82F3CD
:1028AC00A4F8522100224A6294F8C020980800FB38
:1028BC0002F2C2F38F12C2EBD303A4F85621D4F860
:1028CC005C21A8659BB2042AA4F8583126D94A6A1F
:1028DC009A42FCD3FFF7C2F9D4F85C31607F94F8CC
:1028EC0026100022013384F8382184F8392150EA6B
:1028FC000102C4F85C3104D1AB6DB3F5FA6F06D3A9
:10290C0038BD132BFCD9AB6DB3F5FA6FF8D8002397
:10291C0085F85630BDE8384002F034BB4B6AD9E735
:10292C000000002000100040F8040020F8B5904C86
:10293C00B4F89611B4F89401B4F8982194F878315D
:10294C00B4F87C51A4F868510131A4F8961194F8AC
:10295C009A11013001320B43A4F89401A4F8982188
:10296C0041D194F89B21002A3DD0B4F86451002D3C
:10297C0040F0E781B4F89C3101339BB244F62061FE
:10298C008B42A4F89C312ED9B4F89E311E2B40F208
:10299C00648294F8243001218B4284F8781140F041
:1029AC006182B4F8A01173484B08A0FB0323DB0928
:1029BC00B1F5B97F84F89A310DD36F4F4AF6AA2638
:1029CC0001F038FA6420FEF7D7FE94F89A313E6095
:1029DC000135AB42F4DC94F8C33094F8C2201343B5
:1029EC0001D184F82630E17F79B1644BB4F8A2218F
:1029FC0093F86A33013B01320B4492B203EB83032D
:102A0C00B2EB830FA4F8A2217FDC94F86A61002E4C
:102A1C005AD15A4D95F8563023B194F86031002BA9
:102A2C0040F05781B4F89831142B53D894F8C42043
:102A3C00B4F89431B3FBF2F102FB1133002B6BD1E0
:102A4C00D4F85C31B4F87A11952B40F23C8195297D
:102A5C0040F23981D4F83C31B3F5FA7F8CBF95F84C
:102A6C00493095F84A30DBB285F89833B4F86821D0
:102A7C00501A984203DDCA1892B2A4F86821881A39
:102A8C0083424DDACB1A9AB294F87831A4F86821C3
:102A9C00002B49D194F83B11002959D0E988B4F89E
:102AAC008031374801FB03F380FB0350DB17A3EBAA
:102ABC00E0130B449BB2A4F8A8313248A4F87A2155
:102ACC00C0E90D33C162C363B4F8AA310133A4F871
:102ADC00AA31F8BD94F8C1300121002284F8A51167
:102AEC00A4F89821002B4FD094F86031002B40F0C3
:102AFC003F81637F002B99D194F87031002B95D0D6
:102B0C0094F86031002B91D08EE00122002384F8E0
:102B1C00A421A4F8A23178E7B4F87A21A4F86821AA
:102B2C0094F87831002BB5D094F860110029B1D00D
:102B3C00B4F86E112F29ADD9E988114801FB02F3C5
:102B4C00A0FB0303DB0901339BB2A4F8A831B4E763
:102B5C00207F022800F0DE80E988094801FB02F39F
:102B6C00A0FB0303C3F3CF13A4F8A831A5E700BF60
:102B7C00F8040020B9D31FB1003000400000002041
:102B8C00D34D6210002C0140637F002BB4D094F81D
:102B9C006031002B3FF44AAFAB6DB5F86E23D5F81E
:102BAC008013D5F878039A1AD5F89033C5F87023AA
:102BBC0000FB02119942C5F88013C4BF1946C5F831
:102BCC0080335B428B42C4BF1946C5F88033D5F8BD
:102BDC008833D5F87C03C5F88823D31A00FB03F39C
:102BEC00D5F87403C5F8843300FB0233D5F894236D
:102BFC000B449342C5F88C33C4BF1346C5F88C23E1
:102C0C0052429A42D4F88811C4BFC5F88C2313469B
:102C1C00974A0B44934240F31481C4F8882194F8EA
:102C2C007031002B3FF402AFD4F89031B4F872211C
:102C3C00A96F286F9A1AD5F88830AA6600FB021182
:102C4C009942A967C4BF1946AB675B428B42C4BFAC
:102C5C001946AB67D5F88030686FC5F88020D31A59
:102C6C0000FB03F3E86EEB6700FB0233D5F88C2016
:102C7C000B449342C5F88430C4BF1346C5F8842076
:102C8C0052429A42D4F87411C4BFC5F8842013463A
:102C9C00784A0B44934240F3DA80C4F87421D4F898
:102CAC005C31632B3FF6C2AE94F8C420B4F8943177
:102CBC000021A967B3FBF2F102FB1133002B7FF467
:102CCC002BAFB4F87A1195F84830DBB285F898330D
:102CDC00CCE602F04BF902F041F995F852309BBB6F
:102CEC00002800F0A08094F83831013384F8383192
:102CFC0094F84031002B7FF495AE94F8382195F878
:102D0C006C339A427FF68EAE012384F84031FFF784
:102D1C00BDFD87E6002B3FF41FAF02F09DFCE98858
:102D2C00237B554A01FB03F3A2FB0323DB0903EBD3
:102D3C0083035B0064339BB2B4F86821A4F8A83118
:102D4C00BBE6A4F89C314EE600285FD194F83831EC
:102D5C00013384F8383194F84031002B7FF462AEA3
:102D6C0094F8382195F86B339A427FF65BAECBE73B
:102D7C0094F82C20B4F9A631296BA86A02EB8202D4
:102D8C0002EB8202A3EBC2022B6C2A6200FB021143
:102D9C0099422963C4BF19462B635B428B42C4BF63
:102DAC0019462B63AB6BE86AAA63D31A00FB03F3D7
:102DBC00686A6B6300FB02336A6C0B449342EB63EF
:102DCC00C4BF1346EA6352429A422C49C4BFEA6319
:102DDC001346DA1781FB0313C2EB2332B5F8943098
:102DEC0029899B1A1BB28B42A5F89430BCBF0BB23D
:102DFC00A5F89430B3F5FA6F03DD4FF4FA63A5F838
:102E0C009430637F002B7FF4C7AE08E794F8393118
:102E1C0095F853200133DBB29A4284F839319AD2B7
:102E2C0084F83861FEE594F8393195F85320013374
:102E3C00DBB29A4284F83931BFF45AAF84F83801C6
:102E4C00F0E5002B11DC0023C4F88831E7E6002BF9
:102E5C00B8BF0023C4F8743121E784F89B51A4F85F
:102E6C009C51C0E500F0E6FFB5E5C4F88831D6E624
:102E7C0060E31600F0583801D34D6210AD8BDB685F
:102E8C002DE9F04F85B002F03DF94FF47063B84A6C
:102E9C00D3F8E010914205D1B64AD3F8E410914230
:102EAC0000F01984B44DB54C02F008FA02F0E2FAC5
:102EBC00FEF74AFDE378022B03D12379132B00F0A4
:102ECC00428441F202310323A4F803102A68AB4870
:102EDC006370C02102F086F8637C227DA988E980AA
:102EEC00013B18BF012385F8543002B9E27494F801
:102EFC002630A3B12989B5F89A236B893231012088
:102F0C004FF47A762981323232330021AE8385F840
:102F1C004B00C4F81200A175A5F89A236B8100F040
:102F2C000FFF0023A4F89E3102F02AF9944B4AF6C5
:102F3C00AA221A6001F09EFE94F8713113B101239C
:102F4C0084F8703101F022FF8D4FDFF838A2DFF8E2
:102F5C003892DFF838824AF6AA26B4F84611B4F84B
:102F6C004431B4F84821B4F84A010B441344B4F882
:102F7C004C21B4F84E1103441344D4F85C210B4497
:102F8C00052A627D03F1040334BF062103215B1083
:102F9C00012A85F86C1385F86B13C4F890313E60E8
:102FAC0000F05782022A00F01182B4F8AA3142F2E2
:102FBC001072934209D994F87811002940F0728369
:102FCC0049F64042934200F29383B4F8942144F6BC
:102FDC0020639A421BD9B4F9A62113048AFB03017E
:102FEC001944DB17D4F8AC01C3EB21236849034423
:102FFC000878C4F8AC31022800F0CA82032800F02B
:10300C00B182012800F0BB820023A4F89431D4F8DB
:10301C005C21B2F57A7F40F2A8810021B4F86431CA
:10302C0084F86C11C72B40F20882E17C11B19F2B04
:10303C0040F2A68194F8B111002900F08F81B3F50C
:10304C00C87FC0F0A481D4F8903194F83A0188FB81
:10305C0003C1A1EBE371C4F83C1110B10A2A00F2D0
:10306C00098294F8B931002B00F09C80AB6D322BA7
:10307C0040F29880474B1022002183F80B1383F801
:10308C00152383F80C2394F8A4B1BBF1000F40F086
:10309C00988094F8BC31002B40F0D38194F8A5B102
:1030AC00BBF1010F00F0A78094F86A314FF0000BD0
:1030BC0084F8CBB1002B40F01E8194F86031364A75
:1030CC00D4F89011354892FBF1F213FB02F39BB24A
:1030DC00A0FB032095F84B20A4F8BA31C008A4F843
:1030EC00CC01002A40F0028294F82B1094F8B00125
:1030FC004FF4FA638142A5F89230C0F00A82D4F8FA
:10310C005C31632B00F27581AB6DB3F5FA7F40F245
:10311C0070810C2385F85C3094F82F30002B40F034
:10312C007F811F4A526A4AF6C8739A427FF615AFDE
:10313C0094F860B1BBF1010F7FF40FAF94F86C31D0
:10314C00013384F86C3101F011FFB4F86E3185F85D
:10315C0056B02F2B05D8002384F8603141F2883308
:10316C00AB650023C4F85C31FFF790FBF5E600BFBC
:10317C00DAE32559D963B84E00000020F80400208A
:10318C0000300040B7600BB61F85EB5156555555B6
:10319C001904002000E100E0C0270900CDCCCCCC04
:1031AC0000100040CB4B0022102183F80B1383F846
:1031BC00152383F80C2394F8A4B1BBF1000F3FF452
:1031CC0068AFB4F9AE31B4F8BA11B4F8A62194F8DA
:1031DC00B00100919BB2B4F8A011FEF76BFB0A2072
:1031EC0002F066FC94F8A5B10023BBF1010F84F842
:1031FC00A4317FF459AF01F087FC5946B64801F071
:10320C0031F8B4F8BE0101F01FFDB4F8C221B34B84
:10321C00A4F8C00140F6E44101FB02F2A3FB021347
:10322C00D21A03EB5203B5F89C2384F8B001DB0AE5
:10323C0094F8CC00B4F834E102FB03F3B4F8A02109
:10324C00A9FB031304EB400CC2EBC20202EB5312BA
:10325C000130D4F8C830BCF8D0B0ACF8D0E0C0B273
:10326C003128734488BF0020A3EB0B0384F8CC00F7
:10327C00C4F8C830A9FB03031B0940F6E440A4F8CA
:10328C0036319BB2C4F8C43100FB03F39448A0FB65
:10329C00030343F30F23002BB8BF0023A4F8A6317C
:1032AC0094F82430D110012BC2F3CF02A4F8A02142
:1032BC0000F08D81022B08D1237A934240F2908149
:1032CC00B4F8C8310133A4F8C83194F86A31854890
:1032DC00B4F8C81142F2107200FB0322914200F3C1
:1032EC00878100224FF0000B84F8A52184F8CBB124
:1032FC00002B3FF4E2AEB4F86E31302B4FD994F87A
:10330C007821002A4BD0313B572B00F2908194F856
:10331C00CE31002B40F00682FFF710FA94F81BE038
:10332C00B4F86E017822302141F6583340F22A3C31
:10333C00B3FBFEF3BCFBFEFCCDF800C0FEF7E8F9D6
:10334C00A5F8A00380B2FEF70BFAB5F8A0234FF452
:10335C001673B3FBF2F3A4F8BA31FEE5952B94BFC8
:10336C0064230A2385F85E306DE6B4F8643193B9B2
:10337C00642A84F86C3160D8E17C00293FF45AAEA1
:10338C00002184F86C1194F8B1110029E6D00023C7
:10339C0084F86C3157E6642A7FF647AE42E694F81F
:1033AC001CB001239B4584F8CE3100F0BF80BBF1EB
:1033BC00020F00F0F8804C4B0022C3E90D22DA63B7
:1033CC0002F00CF90023A4F8BA31C6E5D4F83C316C
:1033DC00A3F16502942A05D803EB430203EB8203A5
:1033EC00EB80E2E5013B622B3ED840F21453EB80BC
:1033FC00DBE50C230093D4F83C0103234FF4FA7261
:10340C006421FEF785F9AB6D85F85C00312B9CBF10
:10341C00022385F85C3094F82F30002B3FF481AEFA
:10342C0017230093B4F868010D234FF4FA6264215A
:10343C00FEF76EF984F8540173E6002184F86C11E0
:10344C00F3E5FEF753FA312002F032FB84F8BCB1FD
:10345C0024E6AB880093C822A86D5B086021FEF7B8
:10346C0057F9627DE8809DE5F82B84BF40F6B243A6
:10347C00EB809AE5D4F8B401FEF76CF9D4F83C3142
:10348C00B0EB530F1AD9B3F5FA6F17D294F8B821E1
:10349C00013284F8B821A27C0021C4F85C119AB9DD
:1034AC00B4F86E212F2A0FD9002284F860216A8982
:1034BC005208A4F87A21012285F85620002284F8BB
:1034CC003A21C4F8B431CCE5AA6DB2F57A7FEED9C5
:1034DC00EAE700BF00E100E0002401400101100018
:1034EC00FF04EC4F54D9FFFF002C0140B5F89E337C
:1034FC000093B5F84C10AB8BB5F84E20FEF708F9DD
:10350C0094F82B10A5F8920094F8B0018142BFF406
:10351C00F6ADB5F89E33012200925B0801F10A0268
:10352C000A39FEF7F5F8A5F89200E8E594F8293089
:10353C00EA888C4903EB830303EB8303DB009BB228
:10354C00A4F8803102FB03F381FB0301DB17A3EB2F
:10355C00E11313449BB2632BA4F8A8315CD802F09E
:10356C0013FA2FE7B4F8A031A9FB0323C3F3C70365
:10357C007D4A43F48063138001230B7044E594F877
:10358C00B031794A43F40073138002230B703BE58E
:10359C00D3B2A9FB03231B09734A43F4C063138002
:1035AC0003230B7030E5584602F056F8EA88237B6B
:1035BC0002FB03F36B4AA2FB0323DB0903EB83033C
:1035CC006A4A5B006433C2E90D33D363FAE694F8BC
:1035DC009A312A8B89B202FB03F38B423FF770AE10
:1035EC0094F8CA31002B7FF470AEA4F8C8316CE6A5
:1035FC004FF0000B012384F8CA31A4F86EB101F02E
:10360C00EDFF01F0B3FC94F86A3184F860B1A4F8D2
:10361C009EB184F878B164E601F0A8FF534BB4F87E
:10362C00A82184F83BB1C3E90D22DA63CAE6012371
:10363C0084F8CE31FFF782F8B4F86E31C82B04D978
:10364C005023A4F882B1A5F8A033B5F8A003FEF777
:10365C0087F8B4F98231002B7FF47FAC444984F8AD
:10366C006A31012284F83B3142F22833AB65C4F84D
:10367C003C31C4F8B43185F856204B6284F8602193
:10368C00637F95F8A22385F855201422C4F85C2199
:10369C001BB1B5F89A33A4F87A31FEF7DFFA01F0D2
:1036AC00D9FE5AE401F09AFF304B0025C3E90D55C1
:1036BC00DD6384F87851A4F86E5184F89B51A4F81A
:1036CC009E5101F0CFFE2B484FF48072294602F038
:1036DC008FFCFEF727F993F8EC30274D2B2B3CD0C1
:1036EC00352B36D01F2B04BF244B2B60FFF7DBBBD5
:1036FC00039101F073FF03991C4B84F87811C3E913
:10370C000D11D963A4F86E1184F89B11A4F89E11C5
:10371C00039101F0A7FE039916484FF4807202F052
:10372C0067FCD6E7164AD36823F00103D36001F097
:10373C001DFC0E4BC3E90DBBC3F83CB002F062F9A3
:10374C0084F8CEB1E8E56378022B3FF6C5ABFFF702
:10375C00B8BB0C4B2B60FFF7A6BB0B4B2B60FFF7DA
:10376C00A2BB00BFD34D62101A040020002C0140F4
:10377C00001000402007002000000020007C000802
:10378C000044014000F8000800F80108F0B5604C56
:10379C00D4E90002101A6FF4487240F27653821882
:1037AC009A4283B02AD85B4E5B4D002333802B7832
:1037BC00002B3CD06B780146ABB9AB78002B00F0FA
:1037CC008E80A888554F01333988AB70FDF7C2FF46
:1037DC00322866D900223B882A706A78AB804AB1BD
:1037EC00D4E90031C91A40F2E14399424DD9AB7981
:1037FC004B2B77D80023A868338004E04649484B0C
:10380C00886800221A804749474A0B881268A0EB47
:10381C00030C944503DD13440B8003B0F0BD1C1A5C
:10382C00A242BABF9B1A0B80088003B0F0BD3F4A7E
:10383C00947C74B13E4A128890421AD83D494FF498
:10384C007A7409880094FDF763FFA8600023338025
:10385C00D9E7324B1A88374B198840F2FF73009323
:10386C002F23FDF755FF3028CEBFA860AC60204653
:10387C00ECE72A4B511C1A884FF4FA63009340F280
:10388C00E933FDF745FFA860E0E72A48AB790288E9
:10389C00C2EBC20201331144DBB2C908AB71018027
:1038AC00A6E73B886268C3EBC3012368D31AAA78E6
:1038BC000B44C3F3CF03322A3B808ED9193B9BB206
:1038CC003B80A3F2D663194A03EBD3735B1082F8E7
:1038DC00213001236B7000F0E3FA3B887DE780B266
:1038EC00A8806FE7134A1149138819339BB21380D0
:1038FC00A3F2EE2303EBD3735B10002481F820308A
:10390C002C70FEF7A1F9AC7100F0FAFA72E700BF67
:10391C0020070020A2060020F40600201200002040
:10392C00960600205A060020B8030020F804002058
:10393C001400002010000020514BF0B5514F1968B5
:10394C00002544F6206E1A46A7F804E003F178042B
:10395C00AC462E4652F8043F8B42A3EB01001946AD
:10396C0006D070453CBF1FFA80FE01268444012519
:10397C009442EFD1002E3ED0A7F804E0424A4348CF
:10398C00FDB113784FEA5C15012BC56045D0404C56
:10399C002378012B32D011780B4311D10EF1FF316A
:1039AC00022945D83B2D0BD83A493B4C0B700123CF
:1039BC003A4913700E22227020220374BA710B70D4
:1039CC00F0BD1378C560012BE1D10EF1FF33022B52
:1039DC0048D9AEF10403042BD9D801231370032268
:1039EC002D4902742B4C2D4A23700720087013703C
:1039FC002021B971F0BD44F6206EBFE7AEF1C902CB
:103A0C0092B244F656518A42DAD82249234A1370AC
:103A1C00772008700221B971F0BD0EF1FF33022B33
:103A2C0019D83B2D1ED91A4C2378012BB3D1F0BDDC
:103A3C00AEF10403042B02D8632DC1D8CDE7AEF14F
:103A4C00C9039BB244F656529342B9D8012311498B
:103A5C00124A2370DBE7AEF10403042B97D8632DD5
:103A6C00E1D8BAE70D4E0B4C0B49012333700374AC
:103A7C001370002323700E230B702023BB7186E779
:103A8C0020070020B8030020BA050020F40600200F
:103A9C00BB050020C2030020C303002093060020B6
:103AAC0070B5524C237813B1514B1B7833B9514B31
:103ABC001B78002B6DD0012B0AD070BD4E4B1B78A0
:103ACC00002B53D001F0D6F84C4B02221A7070BD6B
:103ADC00474B1B78002B4FD1494D2B78012B74D0C1
:103AEC00484B1B78012B67D02378002BE5D12B7822
:103AFC00E3B1454A537C072B18D84449098805295A
:103B0C0014D943485469C16F00680133DBB22144B6
:103B1C00091A082B5374516108D1C1F3CF033D48E6
:103B2C00C1F3CF115C18591A048111833A4C2088C7
:103B3C00002838D0394BDD79002DBED1334A40F204
:103B4C00DC5398421580B8D92F4E718BFDF702FECD
:103B5C00322848D8337F0133DBB2322B337702D98A
:103B6C007578002D3BD02388738370BD01F0BCF8B1
:103B7C00224B01221A7070BD1F4B1B787BB1284B56
:103B8C001888FDF743FDFDF7D5FABDE8704001F04C
:103B9C0071B8FFF7D1FEBDE8704001F06BB8BDE81D
:103BAC00704001F0A1B8184B1B78002BC2D1174AFA
:103BBC0013880133138070BD01F0E0F8154B48B148
:103BCC0003229A7101F056F88EE7FDF7B3FA01F073
:103BDC0051F885E702229A71FFF7D8FDF2E700F061
:103BEC00BFF9012333703577BDE700BF70060020A5
:103BFC00B1060020930600201C070020840600203C
:103C0C00BA050020BB050020F40600209606002013
:103C1C0020070020B80300205C060020F8040020D8
:103C2C00880600200B28034B28BF0B20400018707F
:103C3C00704700BF110700202DE9F84F354C364E68
:103C4C00DFF8D880032001F007FD04F17C07002386
:103C5C0018E094F835503249DFF8C8B0C3EBC31004
:103C6C00F7224FF47A6A0CEB400080B212FB05A2EB
:103C7C004DBBC1E90D55CD63FDF77EFD2B460234DE
:103C8C00A74211D094F834C04FF000094AF6AA228A
:103C9C00BCF1FF0FC8F80020A6F80090D9D102346F
:103CAC000133A742DBB2EDD101F098FC1E481C4A4F
:103CBC0000881A4900239362D0624AF6AA22338004
:103CCC000A60BDE8F88FBBFBF2FA4FF00A0E174AF8
:103CDC00174DB2FBFAF290B2C1F828E0C8622A780C
:103CEC0000FB02F2FE2010FB03C0124B83FB0232DE
:103CFC00114BB3FBFAFA114B0AFB00F0D20AA3FBEF
:103D0C000030C1E90D22CA63C0F34F10FDF734FD3A
:103D1C004B46B4E7F8040020A20600200030004017
:103D2C00002C0140C0D8A70004000020001BB700E5
:103D3C001107002057EAE068A08601001F85EB51AF
:103D4C0010B572B61A4B93F83030FF2B07D0FFF733
:103D5C0073FF184A184B1288DA6262B610BD164C03
:103D6C00164B41F28732E2621B78E363C4E90D33F0
:103D7C00032001F071FC3723A362C820FDF7FCFC83
:103D8C00052001F069FC2823A362C820FDF7F4FC90
:103D9C00062001F061FC1923A362C820FDF7ECFC9E
:103DAC0001F01CFC064A0023A3621380D1E700BF7C
:103DBC00F804002004000020002C01401107002012
:103DCC00A206002070B5164C41F28733E36272B63E
:103DDC00144D154B3C224AF6AA262E60A2621B7883
:103DEC00E363C4E90D33012001F036FC4B20FDF7F1
:103DFC00C3FC5023A3624B20FDF7BEFC5A23A362E5
:103E0C004B202E60FDF7B8FC01F0E8FB074A08498F
:103E1C0012880023A3620B80E26262B670BD00BF01
:103E2C00002C01400030004011070020040000204D
:103E3C00A206002010B572B6144C154A154B4AF662
:103E4C00AA2141F28730E06211605022A2621B78F5
:103E5C00E363C4E90D33032001F0FEFB6420FDF79E
:103E6C008BFC4623A3626420FDF786FC2823A36207
:103E7C006420FDF781FC01F0B1FB074A0749128869
:103E8C000023A3620B80E26262B610BD002C0140DD
:103E9C00003000401107002004000020A206002082
:103EAC0010B5124C124B41F287313222E162A26200
:103EBC001B78E363C4E90D33022001F0CDFB96209F
:103ECC00FDF75AFC0B4A4AF6AA211E2311609620D4
:103EDC00A362FDF751FC01F081FB074A07491288E8
:103EEC000023A3620B80E26210BD00BF002C0140D6
:103EFC00110700200030004004000020A206002022
:103F0C0010B5124C124B41F287312822E162A262A9
:103F1C001B78E363C4E90D33022001F09DFB96206E
:103F2C00FDF72AFC0B4A4AF6AA2150231160962071
:103F3C00A362FDF721FC01F051FB074A07491288E7
:103F4C000023A3620B80E26210BD00BF002C014075
:103F5C00110700200030004004000020A2060020C1
:103F6C002DE9F041154D41F28733EB6272B6144BDB
:103F7C00DFF850801B78144FEB63C5E90D337724C1
:103F8C004AF6AA26A7FB04300009C8F8006001F025
:103F9C0063FB63100A33AB620A20023CFDF7ECFBB7
:103FAC00631CEFD101F01AFB084A0949128800235F
:103FBC00AB620B80EA6262B6BDE8F081002C014076
:103FCC001107002000300040CDCCCCCC04000020E8
:103FDC00A2060020002103E00B4B5B584350043138
:103FEC000A480B4B42189A42F6D30A4A02E00023C5
:103FFC0042F8043B084B9A42F9D301F0D1FD01F091
:10400C00D3FFFEF73DFF70477460000800000020EE
:10401C00C8030020C803002040080020FEE7000071
:10402C00836861F300038360704700BF4FF08073B7
:10403C000360704743680A7862F30823436083681F
:10404C004A7862F34103836083688A7862F3CB23F6
:10405C008360CB78C26A013B63F31752C26270472C
:10406C00836861F308238360704700BF836843F063
:10407C0008038360704700BF8068C0F3C0007047BE
:10408C00836843F004038360704700BF8068C0F30B
:10409C008000704710B4112917D8DFE811F0120016
:1040AC0079007E00830088008D00920097009C00B0
:1040BC00A100A600AB00B000B500BA00BF00C40060
:1040CC007400046963F302040461013A0F2A0DD8E9
:1040DC00DFE802F00E13181D22272C31363B404529
:1040EC004A4F5408C36A61F3D333C36210BC7047A0
:1040FC00436B61F304034363F8E7436B61F34913C8
:10410C004363F3E7436B61F38E234363EEE7436B47
:10411C0061F3D3334363E9E7436B61F318534363B0
:10412C00E4E7436B61F35D634363DFE7036B61F3C8
:10413C0004030363DAE7036B61F349130363D5E705
:10414C00036B61F38E230363D0E7036B61F3D3330B
:10415C000363CBE7036B61F318530363C6E7036B8D
:10416C0061F35D630363C1E7C36A61F30403C36274
:10417C00BCE7C36A61F34913C362B7E7C36A61F36F
:10418C008E23C362B2E7C46863F35754C4609CE7E0
:10419C00046963F3C504046197E7046963F3881445
:1041AC00046192E7046963F34B2404618DE70469AD
:1041BC0063F30E34046188E7046963F3D13404615A
:1041CC0083E7046963F3944404617EE7046963F351
:1041DC005754046179E7046963F31A64046174E762
:1041EC00046963F3DD6404616FE7C46863F302047C
:1041FC00C4606AE7C46863F3C504C46065E7C46857
:10420C0063F38814C46060E7C46863F34B24C46030
:10421C005BE7C46863F30E34C46056E7C46863F3A9
:10422C00D134C46051E7C46863F39444C4604CE770
:10423C00836807298CBF43F000736FF35963836065
:10424C00836861F353438360836862F31453836020
:10425C00704700BF024B9A6860F3D7529A60704760
:10426C0000240140836861F396538360704700BF5C
:10427C0020B9034BDA6961F30002DA61704700BFC1
:10428C000000014010B412490B6843F001030B60AD
:10429C000B689B07FCD54B680D4A6FF301034B6011
:1042AC00536813F00C0FC3F38101F9D1136823F099
:1042BC00867323F48033136041F610744FF480102E
:1042CC004FF41F035160D462106310BC93607047AD
:1042DC0000100240030C03F1804303F5043300F09B
:1042EC001F001A68012303FA00F030EA02030CBF26
:1042FC0001200020704700BF030C03F1804303F53D
:10430C00043301291A6800F01F0006D0012101FABC
:10431C0000F022EA00001860704701FA00F0104328
:10432C0018607047030C03F1804303F50433012933
:10433C001A6800F01F0006D0012101FA00F022EAF1
:10434C0000001860704701FA00F0104318607047C5
:10435C00042809D8DFE800F0090F151B03000F4BE8
:10436C005A6A61F300025A6270470C4B1A6861F387
:10437C0000021A607047094B1A6861F310421A6008
:10438C007047064B1A6861F318621A607047034B4A
:10439C001A6A61F300021A62704700BF00100240F3
:1043AC00024B5A6860F307125A60704700100240C3
:1043BC00024B5A6860F30A225A60704700100240A0
:1043CC00024B5A6860F3CD225A60704700100240CD
:1043DC00054B5A6860F38F325A605A68C0F38000FC
:1043EC0060F31C725A60704700100240134BA0B966
:1043FC005A6860F3104284465A60104B5A6861F355
:10440C0095425A605A68C1F3011060F35E725A60AB
:10441C00DA6A6CF31A62DA6270475A6842F48032D4
:10442C005A605A6801280BBF6FF3514242F40032B4
:10443C004FF0020C4FF0000C5A60DEE70010024007
:10444C00024B5A6860F301025A6070470010024038
:10445C00024B5868C0F38100704700BF0010024047
:10446C0038B53F4D6B6813F00C0F0446C3F3810253
:10447C0028D0022A2FD03B4B236039483A4A416856
:10448C003A4DC1F30311515CCB4063604168C1F3F9
:10449C0002211144097C23FA01F1E1604168C1F366
:1044AC00C221695CCB40A36045684168C5F30070CC
:1044BC00C1F3813141EA80010A44127EB3FBF2F36D
:1044CC00236138BD6B6D9805D5D52B6B9901D2D571
:1044DC00274B2360D1E76968EB6A002BC1F30041DD
:1044EC001DDAEA6AEB6AC2F3031CEA6AC3F3082317
:1044FC0002F0070269B369681E4811F4003F1949BC
:10450C0008BF08460021A3FB000503FB01F10CFAD0
:10451C0002F20023FCF7D4FD03462060ADE76B6884
:10452C006A6812F0C04FC3F38343C2F341700CD1DD
:10453C000F2B0AD0023319B1094A526892030AD5DB
:10454C000C4800FB03F3236097E7013303EB0013E4
:10455C00F1E70848D7E7034800FB03F323608CE737
:10456C000010024000127A00346000084460000819
:10457C00006CDC0200093D00012805D0054B5A6D8A
:10458C006FF305125A657047024A536D43F03003BE
:10459C00536570470010024010B404680C490022A7
:1045AC00C3B26FF300040460083B02604260826097
:1045BC00C260A2F13332A2FB03231B09486810BC72
:1045CC009B000F2202FA03F303434B60704700BFBA
:1045DC0000000240036861F300030360704700BFF2
:1045EC00034B1B68034214BF01200020704700BF1F
:1045FC00000002400023C0E90033C0E9023303820B
:10460C00704700BF03684BF6EF72134003600268FB
:10461C000B891343036003684A7C62F30D33036018
:10462C000368CA7B62F38B23036003688A7B62F3A3
:10463C000923036003684A7B62F3C71303600368B2
:10464C000A7B62F3861303600A7C036862F34513EA
:10465C000360D1E9002310B44C894460826010BC23
:10466C00C3607047014BD860704700BF0020024008
:10467C00024B0349034A59605A60704700200240BC
:10468C0023016745AB89EFCD024A136943F08003E0
:10469C0013617047002002401B4A136943F0020368
:1046AC0013615061136943F040031361D368D90758
:1046BC0004D4D3685B0720D5012011E04FF0804370
:1046CC00D168C80712D4D168490713D4D268D2066E
:1046DC0003F1FF334CBF02200320002B08BF042042
:1046EC00094B1A696FF341021A617047013BE7D11C
:1046FC000420F5E7013B0120EFE7D36813F0100F1E
:10470C0014BF02200320EBE700200240194A136972
:10471C0043F0010313610160D368D90704D4D36853
:10472C005B0720D5012011E04FF48013D168C80736
:10473C0012D4D168490713D4D268D20603F1FF33DF
:10474C004CBF02200320002B08BF0420094B1A6920
:10475C006FF300021A617047013BE7D10420F5E7C3
:10476C00013B0120EFE7D36813F0100F14BF0220B8
:10477C000320EBE7002002400B88002B43D02DE9EF
:10478C00F0434FF0000E032601251FFA8EFC4FEA72
:10479C004C0213F0010F06FA02F705FA0CF80EF1B1
:1047AC00010E2CD0046824EA070404608C79D0F83C
:1047BC000090944044EA09040460446824EA080424
:1047CC0044600C79D0F8048004FA0CFC4CEA080420
:1047DC004460846824EA07048460CC79D0F808C06B
:1047EC00944044EA0C048460C46824EA0707C76058
:1047FC0091F805C0C4680CFA02F22243C2605B084F
:10480C00C3D1BDE8F083704701F007039B00C908D2
:10481C0002FA03F20BD0416A4FF00F0C0CFA03F3BF
:10482C0021EA03034362436A1A4342627047016AF6
:10483C004FF00F0C0CFA03F321EA03030362036A33
:10484C001A430262704700BF1F4BDB68C3F302239D
:10485C0000B5C3F1070EBEF1040F03F1040C28BF21
:10486C004FF0040EBCF1060F21D9033B4FF0FF3C77
:10487C000CFA03FC22EA0C024FF0FF3C0CFA0EFC83
:10488C0021EA0C019940002841EA020112DB0F4A8F
:10489C0009011318C9B283F800130123410900F070
:1048AC001F0003FA00F042F821005DF804FB00221F
:1048BC001346E1E7064B00F00F0009010344C9B2AF
:1048CC0019765DF804FB00BF00ED00E000E100E0AC
:1048DC00FCEC00E008B52E4B98421CD02D4B9842B6
:1048EC0023D02D4B98422AD02C4B984209D02C4BDC
:1048FC0098422ED02B4B984235D02B4B98423CD023
:10490C0008BD2A480121FFF70DFDBDE808402748E6
:10491C000021FFF707BD26480121FFF703FDBDE885
:10492C00084023480021FFF7FDBC22480121FFF776
:10493C00F9FCBDE808401F480021FFF7F3BC1E48F6
:10494C000121FFF7EFFCBDE808401B480021FFF7F1
:10495C00E9BC1A480121FFF7E5FCBDE808401748FF
:10496C000021FFF7DFBC16480121FFF7DBFCBDE897
:10497C00084013480021FFF7D5BC12480121FFF76E
:10498C00D1FCBDE808400F480021FFF7CBBC00BFAD
:10499C00002C0140000400400010004000200040AA
:1049AC000040014000440140004801400800100054
:1049BC000B000C00010010000400100010000C0093
:1049CC0011000C0012000C00036861F3C7130360A4
:1049DC00704700BF062909D8DFE801F013080E085C
:1049EC0009080400C36962F3CB23C3617047C36930
:1049FC0062F3C303C3617047836962F3CB238361A2
:104A0C007047836962F3C30383617047062909D831
:104A1C00DFE801F0090E13181D220400036A62F38B
:104A2C000C3303627047036A62F30003036270473E
:104A3C00036A62F3820303627047036A62F304132E
:104A4C0003627047036A62F3861303627047036A5A
:104A5C0062F3082303627047036A62F38A230362DA
:104A6C00704700BF2DE9F04186B0054601A81746F6
:104A7C001E468846FFF7F4FCDDE90334114A9542E3
:104A8C0008BF1C4604EB84046400B4FBF8F10E4C24
:104A9C00A4FB0134E40804EB8403A1EB43010429D7
:104AAC00AB6888BF0134A4B264F30F03AB60EB684E
:104ABC0067F30C33EB602B6966F30D332B6106B097
:104ACC00BDE8F08100380140CDCCCCCCC36861F39B
:104ADC004D33C360704700BFC36861F3C303C36049
:104AEC00704700BFC36861F38203C360704700BFA7
:104AFC00436961F3C7134361704700BF436961F3B6
:104B0C00C3034361704700BF064B0748B3F806C0A8
:104B1C000649074AA0F800C018885B8808801380F3
:104B2C00704700BF14070020B6060020BA0600200C
:104B3C002C06002030B5402387B0002203214FF013
:104B4C009040FCF795FE0823002203214FF0904083
:104B5C00FCF78EFE01214FF4A010FFF7CDFB33487C
:104B6C00334CFFF719FD01A8FFF744FD314B324AD6
:104B7C002E48019301A940F201234FF480250492A1
:104B8C00ADF81430CDE90245FFF73CFD2748012173
:104B9C00FFF720FD01212948FFF7AEFB0720FFF7A7
:104BAC0017FC6846FFF742FA254B264800936946E6
:104BBC00FFF740FA0323194622480122FFF76AFA4D
:104BCC002048032302220621FFF764FA03231A4626
:104BDC001C481121FFF75EFA072304221021194803
:104BEC00FFF758FA0120FFF735FB01221548072182
:104BFC00FFF71EFB13480121FFF732FA1148012180
:104C0C00FFF70EFA0F48FFF731FA0E48FFF734FAA8
:104C1C000028FAD10B480B4CFFF732FA2046FFF76D
:104C2C0035FA0028FAD107B030BD00BF08000240A9
:104C3C00140700204C240140000101010900180058
:104C4C00010100040024014048F2E80303FB00F0DA
:104C5C000028B8BF00F6FF70054B0013C0F5485094
:104C6C0083FB0023C017A0EBE300193000B27047A0
:104C7C00310CC33038B5164D164C6B6C6B6420463A
:104C8C00FFF728FE144B41210B22A16122621A78F6
:104C9C00A2624FF6FF73E3626269104B002142F08F
:104CAC000102626103F8041B0D4A6162EA640D4A59
:104CBC002B651378AB64E36843F40073E3602368FB
:104CCC0043F0010340F68B1223606A6438BD00BFC9
:104CDC000000024000040040C20300201C0700201A
:104CEC0034040040BE03002038B51D4D1D4C6B6CC8
:104CFC0043F010036B642046FFF7ECFD60210323A7
:104D0C00194AA16123621278184BA2624C2101222C
:104D1C00E1621A7063691649164A43F00103636134
:104D2C00154BE9642A655B781733AB646B6C43F005
:104D3C0002036B646B6C43F008036B646B6C43F0A5
:104D4C0001036B64E36843F40073E360636C43F446
:104D5C0000436364236843F00103236038BD00BF44
:104D6C000000024000040040040700201C07002043
:104D7C00340400402C040020C2030020024B1869AC
:104D8C0000F01000704700BF0004004802481023D8
:104D9C0001220221FCF778BD00040048FEE700BFA9
:104DAC00FEE700BFFEE700BFFEE700BF704700BF95
:104DBC00704700BF704700BF704700BF10B502209E
:104DCC00FFF70EFC012800D010BD054C6060FFF70A
:104DDC009BFE0820FFF704FC012808BF606010BD93
:104DEC000000024008B5264B1B78002B39D14FF43C
:104DFC008040FFF7F5FB012811D04FF40050FFF76E
:104E0C00EFFB01281ED04FF40040FFF7E9FB01280F
:104E1C0000D008BD1B4B4FF480525A6008BD1A4B92
:104E2C001B78002BE9D0194A1649136A4FF48040BD
:104E3C0043F00203136248604FF40050FFF7D0FBBD
:104E4C000128E0D10F4B4FF480525A605A6C6FF32B
:104E5C0000025A64FEF724FE0D4B4FF400421A6117
:104E6C00D1E7084B4FF480525A605A6C6FF3000232
:104E7C005A64FEF715FE064B4FF400421A6108BD4A
:104E8C00BA05002000000240BB05002000040040D1
:104E9C000004014008B50D4A0D4B12685B6AB3EB78
:104EAC00520F07D90B4B4FF400125A61BDE8084062
:104EBC00FCF76ABF00F052F8074B1B78834200D016
:104ECC0008BD044B4FF400125A6108BD3406002093
:104EDC00001000400004014052000020024B4FF62D
:104EEC00FE721A61FDF722BD00200040024B002229
:104EFC001A61FCF709BF00BF00440140034B4FF699
:104F0C00FE714FF6FD7219611A6170470040014045
:104F1C00704700BF074B1A69910744BF4FF6FD72EB
:104F2C001A61044B1A69D20744BF4FF6FE721A611C
:104F3C00704700BF00040040064A0749136801335C
:104F4C0013604B691B0400D470474FF400434B6152
:104F5C00FDF7D4BB2008002000040140024BD869A7
:104F6C00C0F38070704700BF00000140044B1A680A
:104F7C004FF4001122F400121A605961704700BFFF
:104F8C0000040140024A136843F400131360704795
:104F9C00000401400F4B1B68B3F5C87F10D20E4ABA
:104FAC00D36923F00403D3610C4B0D4A1B78002BFF
:104FBC000CBF4FF4001100215B059160D36070476A
:104FCC00B3F5167FF0D9044AD36943F00403D361D7
:104FDC00EAE700BF34060020000001405200002028
:104FEC00000401402DE9F0430029B4BFCE1C0E464D
:104FFC0026F00303073383B023F0070300AFADEBB8
:10500C00030DB6106D468846814614460021324683
:10501C00284600F0EDFFB8F1030F17DD4846291FB5
:10502C000022837890F8038090F800E090F801C09B
:10503C001B0443EA086343EA0E03013243EA0C23E0
:10504C00964241F8043F00F10400EADC3E60FFF7B1
:10505C000FFBC4F30903EBB100237B607B683A6858
:10506C009A4211D978687B6804EB800055F82310BC
:10507C00FFF74CFB0320FFF7F5FA7B6801337B60ED
:10508C007A683B689A42EDD3FFF7FEFA0C37BD46BF
:10509C00BDE8F0832046FFF7FFFADDE7002A30DD9C
:1050AC00531E072B10B501F1010421D9031B022B50
:1050BC001ED922F0030E8E440B46441AD3F800C0BE
:1050CC0044F803C004337345F8D1940722F003036A
:1050DC000DD0CC5CC4545C1CA24208DD023311F828
:1050EC0004C000F804C09A4201DDCA5CC25410BD71
:1050FC00431E1A44201AC15C03F8011F9342FAD1D3
:10510C0010BD704762B670471C4B40F2531210B57D
:10511C001A60FFF7B7F801210020FFF719F90120F9
:10512C00FFF7D8F801280446F9D100201D21FFF71C
:10513C005DF921460220FFF70BF91920FFF7CAF899
:10514C0001280446F9D10020FFF72AF90020FFF7C7
:10515C0037F90020FFF72CF92046FFF70DFA022053
:10516C00FFF76EF9FFF774F90228FBD10020FFF767
:10517C0003FABDE8104000F043BD00BF0020024020
:10518C00084B10B44CF6CC4245F255541C6003202D
:10519C001A604FF47A614AF6AA22586010BC9960E2
:1051AC001A6070470030004038B53F483F4C012131
:1051BC00FFF7A2F80025682341F2873146F6680212
:1051CC00E1622046A5622946A261E3610122FFF754
:1051DC0001FC204601220221FFF7FCFB01222046A4
:1051EC000421FFF7F7FB20460121FFF7EDFB636C71
:1051FC002F48642262F3070363640121FFF77CF8F4
:10520C002C4C2D480121FFF777F8022319462A462A
:10521C002046FCF72DFB2A46204601230221FCF7F1
:10522C0027FB80232A4602214FF09040FCF720FBFD
:10523C00204602220121FFF7E7FA294620460222E6
:10524C00FFF7E2FA022207214FF09040FFF7DCFA59
:10525C002A464FF4806302214FF09040FCF708FB84
:10526C002A464FF4007302214FF09040FCF700FBEC
:10527C004FF480732A4602214FF09040FCF7F8FA65
:10528C0002220A214FF09040FFF7BEFA02220921B8
:10529C004FF09040FFF7B8FABDE8384002220821E1
:1052AC004FF09040FFF7B0BA0B001800002C0140F3
:1052BC001100140000040048120014002DE9F047FE
:1052CC004D4CFFF721FF102501214FF4A010FFF7E3
:1052DC0013F884F80B534FF40068C4F80080FFF700
:1052EC0063FF46480121FFF707F8454B45484FF649
:1052FC00FF774FF03B09DF620121C3F82890FEF7DE
:10530C00FBFF414B32224FF0770ADA62C3F828A038
:10531C00302384F813334FF4002323603B480121DE
:10532C00FEF7EAFF01214FF4C010FEF7E5FF00265F
:10533C000223002203214FF09040FCF799FA20231E
:10534C00324603214FF09040FCF792FA84F80C633C
:10535C004FF48053236001213046FEF789FF2C481F
:10536C000121FEF7C9FF2B4B2B48DF62C3F828A0A5
:10537C001A6842F080021A600121FEF7BDFF274B2C
:10538C004FF4FA72DA62C3F8289084F815634FF47C
:10539C0000132360DFF8889022480121FEF7ACFF50
:1053AC0021480121FEF7A8FF2B4632464846022130
:1053BC00FCF75EFA484601220421FFF725FA012189
:1053CC004FF4A010FEF798FF184B40F68A125A645F
:1053DC0084F80B53C4F80080A3F5FE33DF629D62A2
:1053EC001A6842F080021A601A6842F001021A60D0
:1053FC00BDE8F04700F06ABB00E100E004001C00CF
:10540C000010004008001C00002000401100140097
:10541C00120018000048014011001800004401401F
:10542C00000400481200140001001C00000002409F
:10543C00014B5863704700BF002C0140014B98632F
:10544C00704700BF002C0140014BD863704700BF70
:10545C00002C0140024A536943F001035361704729
:10546C00002C0140024B0022DA625A62704700BFE6
:10547C000004004010B5384C012220460021FFF7F3
:10548C00C5FA204601220221FFF7C0FA204601226C
:10549C000421FFF7BBFA012211462046FFF7B6FAAA
:1054AC00204601220321FFF7B1FA204601220521F3
:1054BC00FFF7ACFA2268294B294842F0010222601E
:1054CC00626C42F400426264626942F00102626101
:1054DC001968244A41F001011960596941F0010130
:1054EC005961D96821F00101D960016841F00101CD
:1054FC000160116841F0010111605169A3F592330B
:10550C0041F0010151611A6842F001021A605A69B6
:10551C0042F001025A61DA6842F00102A4F59434B7
:10552C00DA60FFF707FB012200212046FFF76EFA35
:10553C0023680D4A43F001032021236082F80713EE
:10554C008023136002F1C04202F50C52136843F43D
:10555C000043136010BD00BF002C0140004401400B
:10556C00004801400010004000E100E070B54FF031
:10557C00904420464FF4806300220121FCF778F917
:10558C004FF48060A0624FF400732046002201218A
:10559C00FCF76EF94FF400700F4DA0624FF480735E
:1055AC00204600220121FCF763F902234FF480709E
:1055BC001946A06200222846FCF75AF92846012316
:1055CC0000220221FCF754F920468023BDE87040EC
:1055DC0000220221FCF74CB90004004870B51D4EA6
:1055EC0002230022012130464FF09044FCF740F991
:1055FC0002204FF4806300220121B0622046FCF7A8
:10560C0037F901234FF480601D4619460022A06231
:10561C003046FCF72DF94FF4007300222946204642
:10562C00B562FCF725F94FF4007180230022A162CA
:10563C0020462946FCF71CF98023A36200224FF474
:10564C00807329462046FCF713F94FF48073A3624C
:10565C0070BD00BF000400480138F8B5052845D8D6
:10566C00DFE810F045008400F900C3002E010600AD
:10567C00BF4E01231D464FF0904419460022304680
:10568C00FCF7F6F84FF40073002229462046B56269
:10569C00FCF7EEF84FF400728023A2622946002238
:1056AC002046FCF7E5F88023A36100224FF48073B9
:1056BC0029462046FCF7DCF8AE4A127D4FF4807385
:1056CC00A3620223002A40F02F8129463046FCF7C2
:1056DC00CFF80223B3624FF48063002202214FF013
:1056EC009040FCF7C5F8A44BA44ADA61F8BD4FF022
:1056FC0090448023002201212046FCF7B9F8802039
:10570C009B4DA0624FF48073002201212046FCF7D0
:10571C00AFF801234FF4807019460022A0620126D5
:10572C002846FCF7A5F84FF400730022AE61314611
:10573C002046FCF79DF88F4A127D4FF40073A3624C
:10574C000223002A40F0FC8031462846FCF790F8F2
:10575C000223AB624FF48063002202214FF0904091
:10576C00FCF786F8844B864ADA61F8BD804D4FF021
:10577C00904402230022012128460227FCF778F8E6
:10578C004FF48063002201212046AF62FCF770F8D1
:10579C0001234FF480621946A2622846002201269A
:1057AC00FCF766F84FF400730022AE6131462046D8
:1057BC00FCF75EF86F4A127D4FF40073A3628023EE
:1057CC00002A40F0C98031462046FCF751F880236E
:1057DC00A3624FF48073002202214FF09040FCF73B
:1057EC0047F8654B674ADA61F8BD4FF09044802367
:1057FC00002201212046FCF73BF880205C4DA06282
:10580C004FF48073002201212046FCF731F84FF44D
:10581C00807102230022A162284601210226FCF796
:10582C0027F84FF480630022AE6101212046FCF77B
:10583C001FF8504A127D4FF48063A3620123002AA3
:10584C0040F0848019462846FCF712F80123AB621D
:10585C004FF4007380E7464E01231D464FF09044F1
:10586C00194600223046FCF703F84FF4007300226F
:10587C0029462046B562FBF7FBFF4FF4007202236A
:10588C00A2622946002230460227FBF7F1FF4FF4B3
:10589C0080630022B76129462046FBF7E9FF354AB1
:1058AC00127D4FF48063A3628023002A5AD12946CB
:1058BC002046FBF7DDFF8023A3624FF480730CE7D7
:1058CC002B4D4FF090440223002201212846022642
:1058DC00FBF7CEFF4FF48063002201212046AE621D
:1058EC00FBF7C6FF4FF480628023A26201210022E5
:1058FC002046FBF7BDFF8023A36100224FF4807389
:10590C0001212046FBF7B4FF1A4A127D4FF4807335
:10591C00A362012372B919462846FBF7A9FF01239C
:10592C00AB624FF4007356E7002219463046FBF782
:10593C009FFFD0E6002231462846FBF799FFF0E79F
:10594C00002219462846FBF793FF03E70022314655
:10595C002846FBF78DFF7BE7002239462046FBF7F4
:10596C0087FF36E7002239462046FBF781FFA4E784
:10597C0000040048F804002000000140C50000406D
:10598C00E5000040D500004070B51D4E02230022FA
:10599C00012130464FF09044FBF76AFF02204FF490
:1059AC00806300220121B0612046FBF761FF0123D7
:1059BC004FF480601D4619460022A0623046FBF76A
:1059CC0057FF4FF40073002229462046B561FBF7C0
:1059DC004FFF4FF4007180230022A162204629461C
:1059EC00FBF746FF8023A36100224FF48073294606
:1059FC002046FBF73DFF4FF48073A36270BD00BFE0
:105A0C000004004870B5284C227DBABB274D0223F8
:105A1C0001212846FBF72CFF0223AB6200224FF436
:105A2C00806302214FF09040FBF722FF227D9ABB4E
:105A3C001E4D012319462846FBF71AFF0123AB62C2
:105A4C004FF40073002202214FF09040FBF710FF3F
:105A5C00227D8023CAB901214FF09040FBF708FF4B
:105A6C004FF0904380229A62BDE870404FF48073EF
:105A7C00002202214FF09040FBF7FABE02230B48A4
:105A8C0000221946FBF7F4FEC8E7002202214FF072
:105A9C009040FBF7EDFEE7E70448012300220221CA
:105AAC00FBF7E6FECCE700BFF8040020000400483A
:105ABC00054BDA696FF30002DA611862DA6942F0B9
:105ACC000102DA61704700BF0000024030B52B487C
:105ADC002B4D2C4C89B00121FEF70EFC2A480121DC
:105AEC00FEF70AFC01214FF4A010FEF705FC274B32
:105AFC0001A928464022CDE90123FEF73DFE0022F4
:105B0C0006212846FEF780FE2046FEF745FD03A839
:105B1C00FEF770FD1E4A1F4B2046CDE903321E4C8A
:105B2C001E4A002503A94FF48073CDE90523ADF877
:105B3C001C50FEF767FD2B462A4620464FF4E131F8
:105B4C00FEF790FF20460121FEF7C6FF20460121FB
:105B5C00FEF7C8FF20460121FEF7D0FF20460121A9
:105B6C00FEF7C6FF20460121FEF7B0FF2A460321AF
:105B7C000A20FEF769FE09B030BD00BF0E00180008
:105B8C00000400481C000240120014000001020135
:105B9C00C4040020043801400038014010003100DA
:105BAC0030B414490B6843F001030B600B689B077E
:105BBC00FCD54B680F4A6FF301034B60536813F02D
:105BCC000C0FC3F38101F9D113680B480B4C23F074
:105BDC00867323F48033136041F610754FF48013F1
:105BEC005160D56213634FF41F039360846030BC23
:105BFC00704700BF0010024000ED00E000100008EC
:105C0C0010B5FEF725FC60B1022816D02C482D4BA0
:105C1C002D495B682D4AC3F30313CB5CD84010604D
:105C2C0010BD284B5A6D9205F0D51A6B244B2848A1
:105C3C0012F0007F08BF1846E9E7224B5968DA6A70
:105C4C00002AC1F300411CDAD86ADC6ADA6AC0F3B4
:105C5C00031EC4F3082402F0070259B35B681D4805
:105C6C0013F4003F164B4FF0000108BF18460EFA14
:105C7C0002F20023A4FB000E04FB01F1FBF720FA57
:105C8C00C5E758685B6813F0C04FC0F38340C3F39B
:105C9C0041720BD10F2809D0023019B1094B5B6846
:105CAC009B0309D50B4B03FB00F0B0E7013000EB75
:105CBC000210F2E70748DAE7014B03FB00F0A6E716
:105CCC0000127A000010024054600008C403002047
:105CDC00006CDC0200093D002DE9F047089E0D46E2
:105CEC0004468846002B4DD18A42944668D9B2FAB4
:105CFC0082F252B101FA02F3C2F1200120FA01F151
:105D0C000CFA02FC41EA030894404FEA1C45210CB2
:105D1C00B8FBF5FE1FFA8CF705FB1E8341EA034323
:105D2C000EFB07F199420BD91CEB03030EF1FF306C
:105D3C0080F01E81994240F21B81AEF1020E634449
:105D4C005B1AA4B2B3FBF5F005FB103344EA034431
:105D5C0000FB07F7A7420AD91CEB040400F1FF3340
:105D6C0080F00881A74240F2058164440238E41BAC
:105D7C0040EA0E4000211EB1D4400023C6E9004386
:105D8C00BDE8F0878B4208D9002E00F0EE80002190
:105D9C00C6E900050846BDE8F087B3FA83F100298F
:105DAC004AD1AB4202D3824200F2F980841A65EBED
:105DBC00030301209846002EE2D0C6E90048DFE735
:105DCC0002B9FFDEB2FA82F2002A40F09180A1EB18
:105DDC000C054FEA1C471FFA8CFE0121B5FBF7F3AB
:105DEC0007FB1350250C45EA00450EFB03F0A842B7
:105DFC0008D91CEB050503F1FF3802D2A84200F2CA
:105E0C00CB8043462D1AA4B2B5FBF7F007FB105517
:105E1C0044EA05440EFB00FEA64508D91CEB04041D
:105E2C0000F1FF3502D2A64500F2BB802846A4EB58
:105E3C000E0440EA03409EE7C1F120078B4022FA92
:105E4C0007FC4CEA030C20FA07F405FA01F31C4397
:105E5C00FD404FEA1C4900FA01F3B5FBF9F8200CA0
:105E6C001FFA8CFE09FB185540EA054508FB0EF09D
:105E7C00A84202FA01F20BD91CEB050508F1FF3A16
:105E8C0080F08880A84240F28580A8F10208654421
:105E9C002D1AA4B2B5FBF9F009FB105544EA0545DF
:105EAC0000FB0EFEAE4508D91CEB050500F1FF34D6
:105EBC006CD2AE456AD90238654440EA0840A0FB72
:105ECC000294A5EB0E05A542C846A64656D353D060
:105EDC005EB1B3EB080265EB0E0505FA07F722FA83
:105EEC0001F3CD401F43C6E900750021BDE8F087E2
:105EFC00C2F1200320FA03F10CFA02FC25FA03F399
:105F0C0095400D434FEA1C471FFA8CFEB3FBF7F18B
:105F1C0007FB11302B0C43EA004301FB0EF09842B7
:105F2C0004FA02F408D91CEB030301F1FF382FD259
:105F3C0098422DD9023963441B1AADB2B3FBF7F06A
:105F4C0007FB103345EA034500FB0EF3AB4208D9BF
:105F5C001CEB050500F1FF3816D2AB4214D9023800
:105F6C006544ED1A40EA014138E73146304607E70F
:105F7C008646E5E61846FAE64B45A9D2B9EB020887
:105F8C0064EB0C0E0138A3E74046EAE7204694E7A1
:105F9C004146D1E7D0467BE7023B654432E70846F1
:105FAC0009E76444023842E770B50D4D0D4C641B93
:105FBC00A4100026A64209D10B4D0C4C00F020F881
:105FCC00641BA4100026A64205D170BD55F8043BF5
:105FDC0098470136EEE755F8043B98470136F2E74F
:105FEC006C6000086C6000086C6000087060000851
:105FFC0002440346934200D1704703F8011BF9E7B2
:10600C00F8B500BFF8BC08BC9E467047F8B500BF99
:08601C00F8BC08BC9E46704769
:10602400191B12131D1516171A090A0B1E0D0E0F34
:106034000000000000000000010203040607080934
:10604400000000000102030402040608020C081008
:106054000000000000000000010203040607080914
:0860640080FCFF7F0100000039
:04606C0025110008F2
:046070000111000812
:10607400007C00088713871364007800C800D007E9
:106084004C046C07DC0564004A01640090010000C4
:10609400000000009001000000000000E803000080
:1060A40000000000000000000000000000000000EC
:1060B400204E0000A08601000206100114004600D4
:1060C400DC05010501010100D430000005010A00CE
:1060D400E803000010270000000000000A00000090
:1060E4000000000064000000000000000000000048
:1060F40000000000000000001027000050C3000052
:10610400B400D007D0070000B400B700BA00BD0047
:10611400C100C400C700CA00CD00D000D300D6001F
:10612400D900DC00E000E300E600E900EC00EF0049
:10613400F200F500F700FA00FD000001030106017A
:1061440009010B010E0111011301160119011B01B3
:106154001E0120012301250128012A012C012F0100
:1061640031013301350138013A013C013E0140015E
:10617400420144014601470149014B014D014E01D1
:1061840050015101530154015601570158015A015C
:106194005B015C015D015E015F01600161016201FF
:1061A40063016301640165016501660166016701BC
:1061B4006701670168016801680168016801680195
:1061C400680168016801670167016701660166018A
:1061D400650165016401630163016201610160019C
:1061E4005F015E015D015C015B015A0158015701C9
:1061F400560154015301510150014E014D014B010F
:106204004901470146014401420140013E013C016C
:106214003A0138013501330131012F012C012A01E2
:1062240028012501230120011E011B01190116016A
:10623400130111010E010B01090106010301000103
:10624400FD00FA00F700F500F200EF00EC00E900B1
:10625400E600E300E000DC00D900D600D300D00063
:10626400CD00CA00C700C400C100BD00BA00B70019
:10627400B400B100AE00AB00A700A400A1009E00D2
:106284009B009800950092008F008C008800850088
:1062940082007F007C0079007600730071006E003C
:1062A4006B006800650062005F005D005A005700E3
:1062B400550052004F004D004A004800450043007D
:1062C40040003E003C003900370035003300300008
:1062D4002E002C002A002800260024002200210081
:1062E4001F001D001B001A001800170015001400E1
:1062F4001200110010000E000D000C000B000A002B
:10630400090008000700060005000500040003005A
:10631400030002000200010001000100000000006F
:106324000000000000000000000000000000010068
:106334000100010002000200030003000400050044
:10634400050006000700080009000A000B000C0005
:106354000D000E00100011001200140015001700AB
:1063640018001A001B001D001F0021002200240039
:10637400260028002A002C002E00300033003500AF
:10638400370039003C003E0040004300450048000F
:106394004A004D004F005200550057005A005D005E
:1063A4005F006200650068006B006E00710073009E
:1063B400760079007C007F008200850088008C00D4
:1063C4008F009200950098009B009E00A100A400FD
:1063D400A700AB00AE00B10064001E030300641903
:1063E4000000000001000000000000003200000076
:1063F4000000000000000000000000000000000099
:106404001027000050C30000020064006E00D00793
:1064140064000500E8030614013278004B00010013
:106424005A005A001E000201FA000000204E20000B
:0864340050C3110700127A00A9
:107BE000424F5444524956455F46343231000000FA
:107BF0000000000000000000000000000000000085
:0400000508003FE1CF
:00000001FF
